{
  "contractName": "YieldFarmer",
  "abi": [
    {
      "constant": true,
      "inputs": [
        {
          "name": "cTokenAddress",
          "type": "address"
        }
      ],
      "name": "getcTokenBalance",
      "outputs": [
        {
          "name": "",
          "type": "uint256"
        }
      ],
      "payable": false,
      "stateMutability": "view",
      "type": "function"
    },
    {
      "constant": true,
      "inputs": [],
      "name": "comptroller",
      "outputs": [
        {
          "name": "",
          "type": "address"
        }
      ],
      "payable": false,
      "stateMutability": "view",
      "type": "function"
    },
    {
      "constant": false,
      "inputs": [
        {
          "name": "cTokenAddress",
          "type": "address"
        }
      ],
      "name": "getBorrowBalance",
      "outputs": [
        {
          "name": "",
          "type": "uint256"
        }
      ],
      "payable": false,
      "stateMutability": "nonpayable",
      "type": "function"
    },
    {
      "constant": true,
      "inputs": [],
      "name": "owner",
      "outputs": [
        {
          "name": "",
          "type": "address"
        }
      ],
      "payable": false,
      "stateMutability": "view",
      "type": "function"
    },
    {
      "inputs": [
        {
          "name": "_comptroller",
          "type": "address"
        }
      ],
      "payable": false,
      "stateMutability": "nonpayable",
      "type": "constructor"
    },
    {
      "constant": false,
      "inputs": [
        {
          "name": "_solo",
          "type": "address"
        },
        {
          "name": "_token",
          "type": "address"
        },
        {
          "name": "_cToken",
          "type": "address"
        },
        {
          "name": "_amountProvided",
          "type": "uint256"
        },
        {
          "name": "_amountBorrowed",
          "type": "uint256"
        }
      ],
      "name": "openPosition",
      "outputs": [],
      "payable": false,
      "stateMutability": "nonpayable",
      "type": "function"
    },
    {
      "constant": false,
      "inputs": [
        {
          "name": "_solo",
          "type": "address"
        },
        {
          "name": "_token",
          "type": "address"
        },
        {
          "name": "_cToken",
          "type": "address"
        }
      ],
      "name": "closePosition",
      "outputs": [],
      "payable": false,
      "stateMutability": "nonpayable",
      "type": "function"
    },
    {
      "constant": false,
      "inputs": [
        {
          "name": "sender",
          "type": "address"
        },
        {
          "components": [
            {
              "name": "owner",
              "type": "address"
            },
            {
              "name": "number",
              "type": "uint256"
            }
          ],
          "name": "account",
          "type": "tuple"
        },
        {
          "name": "data",
          "type": "bytes"
        }
      ],
      "name": "callFunction",
      "outputs": [],
      "payable": false,
      "stateMutability": "nonpayable",
      "type": "function"
    }
  ],
  "bytecode": "0x60806040523480156200001157600080fd5b5060405160208062002c3a8339810180604052620000339190810190620000d3565b80806000806101000a81548173ffffffffffffffffffffffffffffffffffffffff021916908373ffffffffffffffffffffffffffffffffffffffff1602179055505033600160006101000a81548173ffffffffffffffffffffffffffffffffffffffff021916908373ffffffffffffffffffffffffffffffffffffffff1602179055505062000133565b6000620000cb8251620000ff565b905092915050565b600060208284031215620000e657600080fd5b6000620000f684828501620000bd565b91505092915050565b60006200010c8262000113565b9050919050565b600073ffffffffffffffffffffffffffffffffffffffff82169050919050565b612af780620001436000396000f3fe608060405234801561001057600080fd5b506004361061007d5760003560e01c80638b4187131161005b5780638b418713146101005780638da5cb5b1461011c578063d2ceba1f1461013a578063d9a9304f146101565761007d565b80631031cb5f146100825780635fe3b567146100b25780637d6af079146100d0575b600080fd5b61009c60048036036100979190810190611bea565b610172565b6040516100a99190612754565b60405180910390f35b6100ba610204565b6040516100c7919061263e565b60405180910390f35b6100ea60048036036100e59190810190611bea565b610229565b6040516100f79190612754565b60405180910390f35b61011a60048036036101159190810190611d02565b6102bd565b005b610124610373565b604051610131919061250a565b60405180910390f35b610154600480360361014f9190810190611c8b565b610399565b005b610170600480360361016b9190810190611c3c565b6104d2565b005b60008173ffffffffffffffffffffffffffffffffffffffff166370a08231306040518263ffffffff1660e01b81526004016101ad919061250a565b60206040518083038186803b1580156101c557600080fd5b505afa1580156101d9573d6000803e3d6000fd5b505050506040513d601f19601f820116820180604052506101fd9190810190611dfc565b9050919050565b6000809054906101000a900473ffffffffffffffffffffffffffffffffffffffff1681565b60008173ffffffffffffffffffffffffffffffffffffffff166317bfdfbc306040518263ffffffff1660e01b8152600401610264919061250a565b602060405180830381600087803b15801561027e57600080fd5b505af1158015610292573d6000803e3d6000fd5b505050506040513d601f19601f820116820180604052506102b69190810190611dfc565b9050919050565b6102c56117e9565b818060200190516102d99190810190611dd3565b9050600060018111156102e857fe5b816040015160018111156102f857fe5b141561033a576103168160200151826080015183606001510161086f565b6103238160200151610a5d565b61033581602001518260800151610beb565b61036d565b61034c81602001518260800151610cc8565b600061035b8260200151610172565b905061036b826020015182610eb6565b505b50505050565b600160009054906101000a900473ffffffffffffffffffffffffffffffffffffffff1681565b600160009054906101000a900473ffffffffffffffffffffffffffffffffffffffff1673ffffffffffffffffffffffffffffffffffffffff163373ffffffffffffffffffffffffffffffffffffffff1614610429576040517f08c379a0000000000000000000000000000000000000000000000000000000008152600401610420906126b9565b60405180910390fd5b8373ffffffffffffffffffffffffffffffffffffffff166323b872dd3330856040518463ffffffff1660e01b81526004016104669392919061255c565b602060405180830381600087803b15801561048057600080fd5b505af1158015610494573d6000803e3d6000fd5b505050506040513d601f19601f820116820180604052506104b89190810190611daa565b506104cb85858560006002870386610f93565b5050505050565b600160009054906101000a900473ffffffffffffffffffffffffffffffffffffffff1673ffffffffffffffffffffffffffffffffffffffff163373ffffffffffffffffffffffffffffffffffffffff1614610562576040517f08c379a0000000000000000000000000000000000000000000000000000000008152600401610559906126b9565b60405180910390fd5b8173ffffffffffffffffffffffffffffffffffffffff166323b872dd333060026040518463ffffffff1660e01b81526004016105a093929190612525565b602060405180830381600087803b1580156105ba57600080fd5b505af11580156105ce573d6000803e3d6000fd5b505050506040513d601f19601f820116820180604052506105f29190810190611daa565b506105fb61123c565b600061060682610229565b90506106188484846001600086610f93565b60006106226112ca565b9050600081905060008173ffffffffffffffffffffffffffffffffffffffff166370a08231306040518263ffffffff1660e01b8152600401610664919061250a565b60206040518083038186803b15801561067c57600080fd5b505afa158015610690573d6000803e3d6000fd5b505050506040513d601f19601f820116820180604052506106b49190810190611dfc565b90508173ffffffffffffffffffffffffffffffffffffffff1663a9059cbb33836040518363ffffffff1660e01b81526004016106f1929190612593565b602060405180830381600087803b15801561070b57600080fd5b505af115801561071f573d6000803e3d6000fd5b505050506040513d601f19601f820116820180604052506107439190810190611daa565b50600086905060008173ffffffffffffffffffffffffffffffffffffffff166370a08231306040518263ffffffff1660e01b8152600401610784919061250a565b60206040518083038186803b15801561079c57600080fd5b505afa1580156107b0573d6000803e3d6000fd5b505050506040513d601f19601f820116820180604052506107d49190810190611dfc565b90508173ffffffffffffffffffffffffffffffffffffffff1663a9059cbb33836040518363ffffffff1660e01b8152600401610811929190612593565b602060405180830381600087803b15801561082b57600080fd5b505af115801561083f573d6000803e3d6000fd5b505050506040513d601f19601f820116820180604052506108639190810190611daa565b50505050505050505050565b600082905060008173ffffffffffffffffffffffffffffffffffffffff16636f307dc36040518163ffffffff1660e01b815260040160206040518083038186803b1580156108bc57600080fd5b505afa1580156108d0573d6000803e3d6000fd5b505050506040513d601f19601f820116820180604052506108f49190810190611c13565b90508073ffffffffffffffffffffffffffffffffffffffff1663095ea7b385856040518363ffffffff1660e01b81526004016109319291906125bc565b602060405180830381600087803b15801561094b57600080fd5b505af115801561095f573d6000803e3d6000fd5b505050506040513d601f19601f820116820180604052506109839190810190611daa565b5060008273ffffffffffffffffffffffffffffffffffffffff1663a0712d68856040518263ffffffff1660e01b81526004016109bf9190612754565b602060405180830381600087803b1580156109d957600080fd5b505af11580156109ed573d6000803e3d6000fd5b505050506040513d601f19601f82011682018060405250610a119190810190611dfc565b905060008114610a56576040517f08c379a0000000000000000000000000000000000000000000000000000000008152600401610a4d906126f9565b60405180910390fd5b5050505050565b60606001604051908082528060200260200182016040528015610a8f5781602001602082028038833980820191505090505b5090508181600081518110610aa057fe5b602002602001019073ffffffffffffffffffffffffffffffffffffffff16908173ffffffffffffffffffffffffffffffffffffffff168152505060606000809054906101000a900473ffffffffffffffffffffffffffffffffffffffff1673ffffffffffffffffffffffffffffffffffffffff1663c2998238836040518263ffffffff1660e01b8152600401610b3691906125e5565b600060405180830381600087803b158015610b5057600080fd5b505af1158015610b64573d6000803e3d6000fd5b505050506040513d6000823e3d601f19601f82011682018060405250610b8d9190810190611d69565b9050600081600081518110610b9e57fe5b602002602001015114610be6576040517f08c379a0000000000000000000000000000000000000000000000000000000008152600401610bdd90612679565b60405180910390fd5b505050565b600082905060008173ffffffffffffffffffffffffffffffffffffffff1663c5ebeaec846040518263ffffffff1660e01b8152600401610c2b9190612754565b602060405180830381600087803b158015610c4557600080fd5b505af1158015610c59573d6000803e3d6000fd5b505050506040513d601f19601f82011682018060405250610c7d9190810190611dfc565b905060008114610cc2576040517f08c379a0000000000000000000000000000000000000000000000000000000008152600401610cb9906126d9565b60405180910390fd5b50505050565b600082905060008173ffffffffffffffffffffffffffffffffffffffff16636f307dc36040518163ffffffff1660e01b815260040160206040518083038186803b158015610d1557600080fd5b505afa158015610d29573d6000803e3d6000fd5b505050506040513d601f19601f82011682018060405250610d4d9190810190611c13565b90508073ffffffffffffffffffffffffffffffffffffffff1663095ea7b385856040518363ffffffff1660e01b8152600401610d8a9291906125bc565b602060405180830381600087803b158015610da457600080fd5b505af1158015610db8573d6000803e3d6000fd5b505050506040513d601f19601f82011682018060405250610ddc9190810190611daa565b5060008273ffffffffffffffffffffffffffffffffffffffff16630e752702856040518263ffffffff1660e01b8152600401610e189190612754565b602060405180830381600087803b158015610e3257600080fd5b505af1158015610e46573d6000803e3d6000fd5b505050506040513d601f19601f82011682018060405250610e6a9190810190611dfc565b905060008114610eaf576040517f08c379a0000000000000000000000000000000000000000000000000000000008152600401610ea6906126d9565b60405180910390fd5b5050505050565b600082905060008173ffffffffffffffffffffffffffffffffffffffff1663db006a75846040518263ffffffff1660e01b8152600401610ef69190612754565b602060405180830381600087803b158015610f1057600080fd5b505af1158015610f24573d6000803e3d6000fd5b505050506040513d601f19601f82011682018060405250610f489190810190611dfc565b905060008114610f8d576040517f08c379a0000000000000000000000000000000000000000000000000000000008152600401610f8490612719565b60405180910390fd5b50505050565b60008690506000610fa48888611370565b90506000610fb184611522565b90508773ffffffffffffffffffffffffffffffffffffffff1663095ea7b38a836040518363ffffffff1660e01b8152600401610fee9291906125bc565b602060405180830381600087803b15801561100857600080fd5b505af115801561101c573d6000803e3d6000fd5b505050506040513d601f19601f820116820180604052506110409190810190611daa565b506060600360405190808252806020026020018201604052801561107e57816020015b61106b61184f565b8152602001906001900390816110635790505b50905061108b838661153f565b8160008151811061109857fe5b60200260200101819052506111286040518060a001604052808b73ffffffffffffffffffffffffffffffffffffffff1681526020018a73ffffffffffffffffffffffffffffffffffffffff1681526020018960018111156110f557fe5b8152602001888152602001878152506040516020016111149190612739565b6040516020818303038152906040526115f8565b8160018151811061113557fe5b602002602001018190525061114a83836116a2565b8160028151811061115757fe5b60200260200101819052506060600160405190808252806020026020018201604052801561119f57816020015b61118c6118bb565b8152602001906001900390816111845790505b5090506111aa61175b565b816000815181106111b757fe5b60200260200101819052508473ffffffffffffffffffffffffffffffffffffffff1663a67a6a4582846040518363ffffffff1660e01b81526004016111fd929190612607565b600060405180830381600087803b15801561121757600080fd5b505af115801561122b573d6000803e3d6000fd5b505050505050505050505050505050565b6000809054906101000a900473ffffffffffffffffffffffffffffffffffffffff1673ffffffffffffffffffffffffffffffffffffffff1663e9af0292306040518263ffffffff1660e01b8152600401611296919061250a565b600060405180830381600087803b1580156112b057600080fd5b505af11580156112c4573d6000803e3d6000fd5b50505050565b60008060009054906101000a900473ffffffffffffffffffffffffffffffffffffffff1673ffffffffffffffffffffffffffffffffffffffff16639d1b5a0a6040518163ffffffff1660e01b815260040160206040518083038186803b15801561133357600080fd5b505afa158015611347573d6000803e3d6000fd5b505050506040513d601f19601f8201168201806040525061136b9190810190611c13565b905090565b60008083905060008173ffffffffffffffffffffffffffffffffffffffff1663295c39a56040518163ffffffff1660e01b815260040160206040518083038186803b1580156113be57600080fd5b505afa1580156113d2573d6000803e3d6000fd5b505050506040513d601f19601f820116820180604052506113f69190810190611dfc565b9050600080600090505b828110156114e0578373ffffffffffffffffffffffffffffffffffffffff1663062bd3e9826040518263ffffffff1660e01b81526004016114419190612754565b60206040518083038186803b15801561145957600080fd5b505afa15801561146d573d6000803e3d6000fd5b505050506040513d601f19601f820116820180604052506114919190810190611c13565b91508573ffffffffffffffffffffffffffffffffffffffff168273ffffffffffffffffffffffffffffffffffffffff1614156114d3578094505050505061151c565b8080600101915050611400565b506040517f08c379a000000000000000000000000000000000000000000000000000000000815260040161151390612699565b60405180910390fd5b92915050565b600061153860028361179490919063ffffffff16565b9050919050565b6115476118eb565b6040518061010001604052806001600881111561156057fe5b81526020016000815260200160405180608001604052806000151581526020016000600181111561158d57fe5b81526020016000600181111561159f57fe5b8152602001858152508152602001848152602001600081526020013073ffffffffffffffffffffffffffffffffffffffff1681526020016000815260200160405180602001604052806000815250815250905092915050565b6116006118eb565b60405180610100016040528060088081111561161857fe5b81526020016000815260200160405180608001604052806000151581526020016000600181111561164557fe5b81526020016000600181111561165757fe5b81526020016000815250815260200160008152602001600081526020013073ffffffffffffffffffffffffffffffffffffffff16815260200160008152602001838152509050919050565b6116aa6118eb565b604051806101000160405280600060088111156116c357fe5b8152602001600081526020016040518060800160405280600115158152602001600060018111156116f057fe5b81526020016000600181111561170257fe5b8152602001858152508152602001848152602001600081526020013073ffffffffffffffffffffffffffffffffffffffff1681526020016000815260200160405180602001604052806000815250815250905092915050565b611763611957565b60405180604001604052803073ffffffffffffffffffffffffffffffffffffffff1681526020016001815250905090565b6000808284019050838110156117df576040517f08c379a00000000000000000000000000000000000000000000000000000000081526004016117d690612659565b60405180910390fd5b8091505092915050565b6040518060a00160405280600073ffffffffffffffffffffffffffffffffffffffff168152602001600073ffffffffffffffffffffffffffffffffffffffff1681526020016000600181111561183b57fe5b815260200160008152602001600081525090565b6040518061016001604052806000600881111561186857fe5b81526020016000815260200161187c611987565b81526020016000815260200160008152602001600073ffffffffffffffffffffffffffffffffffffffff16815260200160008152602001606081525090565b6040518060400160405280600073ffffffffffffffffffffffffffffffffffffffff168152602001600081525090565b6040518061016001604052806000600881111561190457fe5b815260200160008152602001611918611987565b81526020016000815260200160008152602001600073ffffffffffffffffffffffffffffffffffffffff16815260200160008152602001606081525090565b6040518060400160405280600073ffffffffffffffffffffffffffffffffffffffff168152602001600081525090565b6040518060800160405280600015158152602001600060018111156119a857fe5b8152602001600060018111156119ba57fe5b8152602001600081525090565b60006119d38235612957565b905092915050565b60006119e78251612957565b905092915050565b600082601f830112611a0057600080fd5b8151611a13611a0e8261279c565b61276f565b91508181835260208401935060208101905083856020840282011115611a3857600080fd5b60005b83811015611a685781611a4e8882611bd6565b845260208401935060208301925050600181019050611a3b565b5050505092915050565b6000611a7e8251612969565b905092915050565b600082601f830112611a9757600080fd5b8135611aaa611aa5826127c4565b61276f565b91508082526020830160208301858383011115611ac657600080fd5b611ad1838284612a6a565b50505092915050565b6000611ae68251612975565b905092915050565b600060408284031215611b0057600080fd5b611b0a604061276f565b90506000611b1a848285016119c7565b6000830152506020611b2e84828501611bc2565b60208301525092915050565b600060a08284031215611b4c57600080fd5b611b5660a061276f565b90506000611b66848285016119db565b6000830152506020611b7a848285016119db565b6020830152506040611b8e84828501611ada565b6040830152506060611ba284828501611bd6565b6060830152506080611bb684828501611bd6565b60808301525092915050565b6000611bce82356129ac565b905092915050565b6000611be282516129ac565b905092915050565b600060208284031215611bfc57600080fd5b6000611c0a848285016119c7565b91505092915050565b600060208284031215611c2557600080fd5b6000611c33848285016119db565b91505092915050565b600080600060608486031215611c5157600080fd5b6000611c5f868287016119c7565b9350506020611c70868287016119c7565b9250506040611c81868287016119c7565b9150509250925092565b600080600080600060a08688031215611ca357600080fd5b6000611cb1888289016119c7565b9550506020611cc2888289016119c7565b9450506040611cd3888289016119c7565b9350506060611ce488828901611bc2565b9250506080611cf588828901611bc2565b9150509295509295909350565b600080600060808486031215611d1757600080fd5b6000611d25868287016119c7565b9350506020611d3686828701611aee565b925050606084013567ffffffffffffffff811115611d5357600080fd5b611d5f86828701611a86565b9150509250925092565b600060208284031215611d7b57600080fd5b600082015167ffffffffffffffff811115611d9557600080fd5b611da1848285016119ef565b91505092915050565b600060208284031215611dbc57600080fd5b6000611dca84828501611a72565b91505092915050565b600060a08284031215611de557600080fd5b6000611df384828501611b3a565b91505092915050565b600060208284031215611e0e57600080fd5b6000611e1c84828501611bd6565b91505092915050565b6000611e318383611e78565b60208301905092915050565b6000611e49838361234d565b905092915050565b6000611e5d8383612455565b60408301905092915050565b611e72816129b6565b82525050565b611e81816128bf565b82525050565b611e90816128bf565b82525050565b6000611ea182612817565b611eab818561286a565b9350611eb6836127f0565b60005b82811015611ee457611ecc868351611e25565b9550611ed782612843565b9150600181019050611eb9565b50849250505092915050565b6000611efb82612822565b611f05818561287b565b935083602082028501611f17856127fd565b60005b84811015611f50578383038852611f32838351611e3d565b9250611f3d82612850565b9150602088019750600181019050611f1a565b508196508694505050505092915050565b6000611f6c8261282d565b611f76818561288c565b9350611f818361280a565b60005b82811015611faf57611f97868351611e51565b9550611fa28261285d565b9150600181019050611f84565b50849250505092915050565b611fc4816128d1565b82525050565b6000611fd582612838565b611fdf818561289d565b9350611fef818560208601612a79565b611ff881612aac565b840191505092915050565b61200c816129c8565b82525050565b61201b816129ec565b82525050565b61202a816129fe565b82525050565b61203981612a10565b82525050565b61204881612a22565b82525050565b61205781612a34565b82525050565b600061206a601b836128ae565b91507f536166654d6174683a206164646974696f6e206f766572666c6f7700000000006000830152602082019050919050565b60006120aa604c836128ae565b91507f636f6d7074726f6c6c657223656e7465724d61726b65742829206661696c656460008301527f2e2073656520436f6d706f756e64204572726f725265706f727465722e736f6c60208301527f20666f722064657461696c7300000000000000000000000000000000000000006040830152606082019050919050565b60006121366024836128ae565b91507f4e6f206d61726b6574496420666f756e6420666f722070726f7669646564207460008301527f6f6b656e000000000000000000000000000000000000000000000000000000006020830152604082019050919050565b600061219c600a836128ae565b91507f6f6e6c79206f776e6572000000000000000000000000000000000000000000006000830152602082019050919050565b60006121dc6042836128ae565b91507f63546f6b656e23626f72726f772829206661696c65642e2073656520436f6d7060008301527f6f756e64204572726f725265706f727465722e736f6c20666f7220646574616960208301527f6c730000000000000000000000000000000000000000000000000000000000006040830152606082019050919050565b60006122686040836128ae565b91507f63546f6b656e236d696e742829206661696c65642e2073656520436f6d706f7560008301527f6e64204572726f725265706f727465722e736f6c20666f722064657461696c736020830152604082019050919050565b60006122ce6047836128ae565b91507f63546f6b656e2372656465656d2829206661696c65642e2073656520436f6d7060008301527f6f756e64204572726f725265706f727465722e736f6c20666f72206d6f72652060208301527f64657461696c73000000000000000000000000000000000000000000000000006040830152606082019050919050565b6000610160830160008301516123666000860182612012565b50602083015161237960208601826124ec565b50604083015161238c6040860182612400565b50606083015161239f60c08601826124ec565b5060808301516123b260e08601826124ec565b5060a08301516123c6610100860182611e78565b5060c08301516123da6101208601826124ec565b5060e08301518482036101408601526123f38282611fca565b9150508091505092915050565b6080820160008201516124166000850182611fbb565b5060208201516124296020850182612021565b50604082015161243c6040850182612030565b50606082015161244f60608501826124ec565b50505050565b60408201600082015161246b6000850182611e78565b50602082015161247e60208501826124ec565b50505050565b60a08201600082015161249a6000850182611e78565b5060208201516124ad6020850182611e78565b5060408201516124c0604085018261203f565b5060608201516124d360608501826124ec565b5060808201516124e660808501826124ec565b50505050565b6124f58161294d565b82525050565b6125048161294d565b82525050565b600060208201905061251f6000830184611e87565b92915050565b600060608201905061253a6000830186611e69565b6125476020830185611e87565b612554604083018461204e565b949350505050565b60006060820190506125716000830186611e69565b61257e6020830185611e87565b61258b60408301846124fb565b949350505050565b60006040820190506125a86000830185611e69565b6125b560208301846124fb565b9392505050565b60006040820190506125d16000830185611e87565b6125de60208301846124fb565b9392505050565b600060208201905081810360008301526125ff8184611e96565b905092915050565b600060408201905081810360008301526126218185611f61565b905081810360208301526126358184611ef0565b90509392505050565b60006020820190506126536000830184612003565b92915050565b600060208201905081810360008301526126728161205d565b9050919050565b600060208201905081810360008301526126928161209d565b9050919050565b600060208201905081810360008301526126b281612129565b9050919050565b600060208201905081810360008301526126d28161218f565b9050919050565b600060208201905081810360008301526126f2816121cf565b9050919050565b600060208201905081810360008301526127128161225b565b9050919050565b60006020820190508181036000830152612732816122c1565b9050919050565b600060a08201905061274e6000830184612484565b92915050565b600060208201905061276960008301846124fb565b92915050565b6000604051905081810181811067ffffffffffffffff8211171561279257600080fd5b8060405250919050565b600067ffffffffffffffff8211156127b357600080fd5b602082029050602081019050919050565b600067ffffffffffffffff8211156127db57600080fd5b601f19601f8301169050602081019050919050565b6000602082019050919050565b6000602082019050919050565b6000602082019050919050565b600081519050919050565b600081519050919050565b600081519050919050565b600081519050919050565b6000602082019050919050565b6000602082019050919050565b6000602082019050919050565b600082825260208201905092915050565b600082825260208201905092915050565b600082825260208201905092915050565b600082825260208201905092915050565b600082825260208201905092915050565b60006128ca8261292d565b9050919050565b60008115159050919050565b6000600982106128e957fe5b819050919050565b6000600282106128fd57fe5b819050919050565b60006002821061291157fe5b819050919050565b60006002821061292557fe5b819050919050565b600073ffffffffffffffffffffffffffffffffffffffff82169050919050565b6000819050919050565b60006129628261298c565b9050919050565b60008115159050919050565b60006002821061298457600080fd5b819050919050565b600073ffffffffffffffffffffffffffffffffffffffff82169050919050565b6000819050919050565b60006129c182612a46565b9050919050565b60006129d3826129da565b9050919050565b60006129e58261292d565b9050919050565b60006129f7826128dd565b9050919050565b6000612a09826128f1565b9050919050565b6000612a1b82612905565b9050919050565b6000612a2d82612919565b9050919050565b6000612a3f8261294d565b9050919050565b6000612a5182612a58565b9050919050565b6000612a638261292d565b9050919050565b82818337600083830152505050565b60005b83811015612a97578082015181840152602081019050612a7c565b83811115612aa6576000848401525b50505050565b6000601f19601f830116905091905056fea265627a7a723058206ccee5af16597b4c5e5568713079315cdfda0332ad1cb4e36c34f405a9cc527f6c6578706572696d656e74616cf50037",
  "source": "pragma solidity ^0.5.7;\r\npragma experimental ABIEncoderV2;\r\n\r\nimport '@studydefi/money-legos/dydx/contracts/DydxFlashloanBase.sol';\r\nimport '@studydefi/money-legos/dydx/contracts/ICallee.sol';\r\nimport '@openzeppelin/contracts/token/ERC20/IERC20.sol';\r\nimport './Compound.sol';\r\n\r\ncontract YieldFarmer is ICallee, DydxFlashloanBase, Compound {\r\n  enum Direction { Deposit, Withdraw }\r\n  struct Operation {\r\n    address token;\r\n    address cToken;\r\n    Direction direction;\r\n    uint amountProvided;\r\n    uint amountBorrowed;\r\n  }\r\n  address public owner;\r\n\r\n  constructor(address _comptroller) Compound(_comptroller) public {\r\n    owner = msg.sender;\r\n  }\r\n\r\n  function openPosition(\r\n      address _solo,\r\n      address _token,\r\n      address _cToken,\r\n      uint _amountProvided,\r\n      uint _amountBorrowed\r\n  ) external {\r\n    require(msg.sender == owner, 'only owner');\r\n    IERC20(_token).transferFrom(msg.sender, address(this), _amountProvided);\r\n    //2 wei is used to pay for flashloan\r\n    _initiateFlashloan(_solo, _token, _cToken, Direction.Deposit, _amountProvided - 2, _amountBorrowed);\r\n  }\r\n\r\n  function closePosition(\r\n      address _solo,\r\n      address _token,\r\n      address _cToken\r\n  ) external {\r\n    require(msg.sender == owner, 'only owner');\r\n    IERC20(_token).transferFrom(msg.sender, address(this), 2); //2 wei flashloan fee\r\n    claimComp();\r\n    uint borrowBalance = getBorrowBalance(_cToken);\r\n    _initiateFlashloan(_solo, _token, _cToken, Direction.Withdraw, 0, borrowBalance);\r\n\r\n    //COMP\r\n    address compAddress = getCompAddress();\r\n    IERC20 comp = IERC20(compAddress);\r\n    uint compBalance = comp.balanceOf(address(this));\r\n    comp.transfer(msg.sender, compBalance);\r\n\r\n    //token\r\n    IERC20 token = IERC20(_token);\r\n    uint tokenBalance = token.balanceOf(address(this));\r\n    token.transfer(msg.sender, tokenBalance);\r\n  }\r\n\r\n  function callFunction(\r\n    address sender,\r\n    Account.Info memory account,\r\n    bytes memory data\r\n  ) public {\r\n    Operation memory operation = abi.decode(data, (Operation));\r\n\r\n    if(operation.direction == Direction.Deposit) {\r\n      supply(operation.cToken, operation.amountProvided + operation.amountBorrowed);\r\n      enterMarket(operation.cToken);\r\n      borrow(operation.cToken, operation.amountBorrowed);\r\n    } else {\r\n      repayBorrow(operation.cToken, operation.amountBorrowed);\r\n      uint cTokenBalance = getcTokenBalance(operation.cToken);\r\n      redeem(operation.cToken, cTokenBalance);\r\n    }\r\n  }\r\n\r\n  function _initiateFlashloan(\r\n    address _solo,        //dYdX\r\n    address _token,       //token being borrowed\r\n    address _cToken,      //associated Compound cToken\r\n    Direction _direction,\r\n    uint _amountProvided, //\r\n    uint _amountBorrowed  //borrow amount being requested\r\n  )\r\n    internal\r\n  {\r\n    ISoloMargin solo = ISoloMargin(_solo);  //pointer to dYdX smart contract\r\n\r\n    // Get marketId from token address\r\n    uint256 marketId = _getMarketIdFromTokenAddress(_solo, _token);\r\n\r\n    // Calculate repay amount (_amount + (2 wei))\r\n    // Approve transfer from\r\n    uint256 repayAmount = _getRepaymentAmountInternal(_amountBorrowed);\r\n    IERC20(_token).approve(_solo, repayAmount);\r\n\r\n    // 1. Withdraw $\r\n    // 2. Call callFunction(...)\r\n    // 3. Deposit back $\r\n    Actions.ActionArgs[] memory operations = new Actions.ActionArgs[](3);\r\n\r\n    operations[0] = _getWithdrawAction(marketId, _amountBorrowed);\r\n    operations[1] = _getCallAction(\r\n        // Encode MyCustomData for callFunction\r\n        abi.encode(Operation({\r\n          token: _token,\r\n          cToken: _cToken,\r\n          direction: _direction,\r\n          amountProvided: _amountProvided,\r\n          amountBorrowed: _amountBorrowed\r\n        }))\r\n    );\r\n    operations[2] = _getDepositAction(marketId, repayAmount);\r\n\r\n    Account.Info[] memory accountInfos = new Account.Info[](1);\r\n    accountInfos[0] = _getAccountInfo();\r\n\r\n    solo.operate(accountInfos, operations); //initiates the flashloan\r\n  }\r\n}\r\n",
  "sourcePath": "C:/Users/Seva/defi-development/compound-yield-farming/contracts/YieldFarmer.sol",
  "compiler": {
    "name": "solc",
    "version": "0.5.7+commit.6da8b019.Emscripten.clang"
  },
  "schemaVersion": "3.3.3",
  "updatedAt": "2021-02-24T19:57:40.980Z",
  "networkType": "ethereum",
  "devdoc": {
    "methods": {}
  },
  "userdoc": {
    "methods": {}
  }
}