{
  "contractName": "MyDeFiProject",
  "abi": [
    {
      "inputs": [
        {
          "internalType": "address",
          "name": "_comptroller",
          "type": "address"
        },
        {
          "internalType": "address",
          "name": "_priceOracle",
          "type": "address"
        }
      ],
      "stateMutability": "nonpayable",
      "type": "constructor"
    },
    {
      "inputs": [],
      "name": "comptroller",
      "outputs": [
        {
          "internalType": "contract ComptrollerInterface",
          "name": "",
          "type": "address"
        }
      ],
      "stateMutability": "view",
      "type": "function",
      "constant": true
    },
    {
      "inputs": [],
      "name": "priceOracle",
      "outputs": [
        {
          "internalType": "contract PriceOracleInterface",
          "name": "",
          "type": "address"
        }
      ],
      "stateMutability": "view",
      "type": "function",
      "constant": true
    },
    {
      "inputs": [
        {
          "internalType": "address",
          "name": "cTokenAddress",
          "type": "address"
        },
        {
          "internalType": "uint256",
          "name": "underlyingAmount",
          "type": "uint256"
        }
      ],
      "name": "supply",
      "outputs": [],
      "stateMutability": "nonpayable",
      "type": "function"
    },
    {
      "inputs": [
        {
          "internalType": "address",
          "name": "cTokenAddress",
          "type": "address"
        },
        {
          "internalType": "uint256",
          "name": "cTokenAmount",
          "type": "uint256"
        }
      ],
      "name": "redeem",
      "outputs": [],
      "stateMutability": "nonpayable",
      "type": "function"
    },
    {
      "inputs": [
        {
          "internalType": "address",
          "name": "cTokenAddress",
          "type": "address"
        }
      ],
      "name": "enterMarket",
      "outputs": [],
      "stateMutability": "nonpayable",
      "type": "function"
    },
    {
      "inputs": [
        {
          "internalType": "address",
          "name": "cTokenAddress",
          "type": "address"
        },
        {
          "internalType": "uint256",
          "name": "borrowAmount",
          "type": "uint256"
        }
      ],
      "name": "borrow",
      "outputs": [],
      "stateMutability": "nonpayable",
      "type": "function"
    },
    {
      "inputs": [
        {
          "internalType": "address",
          "name": "cTokenAddress",
          "type": "address"
        },
        {
          "internalType": "uint256",
          "name": "underlyingAmount",
          "type": "uint256"
        }
      ],
      "name": "repayBorrow",
      "outputs": [],
      "stateMutability": "nonpayable",
      "type": "function"
    },
    {
      "inputs": [
        {
          "internalType": "address",
          "name": "cTokenAddress",
          "type": "address"
        }
      ],
      "name": "getMaxBorrow",
      "outputs": [
        {
          "internalType": "uint256",
          "name": "",
          "type": "uint256"
        }
      ],
      "stateMutability": "view",
      "type": "function",
      "constant": true
    }
  ],
  "bytecode": "0x608060405234801561001057600080fd5b506040516111ed3803806111ed8339818101604052604081101561003357600080fd5b810190808051906020019092919080519060200190929190505050816000806101000a81548173ffffffffffffffffffffffffffffffffffffffff021916908373ffffffffffffffffffffffffffffffffffffffff16021790555080600160006101000a81548173ffffffffffffffffffffffffffffffffffffffff021916908373ffffffffffffffffffffffffffffffffffffffff160217905550505061110d806100e06000396000f3fe608060405234801561001057600080fd5b50600436106100885760003560e01c80635fe3b5671161005b5780635fe3b567146101a1578063abdb5ea8146101d5578063f2b9fdb814610223578063fd1c317a1461027157610088565b80631e9a69501461008d5780632630c12f146100db5780633fe5d4251461010f5780634b8a352914610153575b600080fd5b6100d9600480360360408110156100a357600080fd5b81019080803573ffffffffffffffffffffffffffffffffffffffff169060200190929190803590602001909291905050506102c9565b005b6100e36103bf565b604051808273ffffffffffffffffffffffffffffffffffffffff16815260200191505060405180910390f35b6101516004803603602081101561012557600080fd5b81019080803573ffffffffffffffffffffffffffffffffffffffff1690602001909291905050506103e5565b005b61019f6004803603604081101561016957600080fd5b81019080803573ffffffffffffffffffffffffffffffffffffffff16906020019092919080359060200190929190505050610678565b005b6101a96107f4565b604051808273ffffffffffffffffffffffffffffffffffffffff16815260200191505060405180910390f35b610221600480360360408110156101eb57600080fd5b81019080803573ffffffffffffffffffffffffffffffffffffffff16906020019092919080359060200190929190505050610818565b005b61026f6004803603604081101561023957600080fd5b81019080803573ffffffffffffffffffffffffffffffffffffffff16906020019092919080359060200190929190505050610a41565b005b6102b36004803603602081101561028757600080fd5b81019080803573ffffffffffffffffffffffffffffffffffffffff169060200190929190505050610c6a565b6040518082815260200191505060405180910390f35b600082905060008173ffffffffffffffffffffffffffffffffffffffff1663db006a75846040518263ffffffff1660e01b815260040180828152602001915050602060405180830381600087803b15801561032357600080fd5b505af1158015610337573d6000803e3d6000fd5b505050506040513d602081101561034d57600080fd5b81019080805190602001909291905050509050600081146103b9576040517f08c379a00000000000000000000000000000000000000000000000000000000081526004018080602001828103825260478152602001806110916047913960600191505060405180910390fd5b50505050565b600160009054906101000a900473ffffffffffffffffffffffffffffffffffffffff1681565b6060600167ffffffffffffffff811180156103ff57600080fd5b5060405190808252806020026020018201604052801561042e5781602001602082028036833780820191505090505b509050818160008151811061043f57fe5b602002602001019073ffffffffffffffffffffffffffffffffffffffff16908173ffffffffffffffffffffffffffffffffffffffff1681525050606060008054906101000a900473ffffffffffffffffffffffffffffffffffffffff1673ffffffffffffffffffffffffffffffffffffffff1663c2998238836040518263ffffffff1660e01b81526004018080602001828103825283818151815260200191508051906020019060200280838360005b8381101561050a5780820151818401526020810190506104ef565b5050505090500192505050600060405180830381600087803b15801561052f57600080fd5b505af1158015610543573d6000803e3d6000fd5b505050506040513d6000823e3d601f19601f82011682018060405250602081101561056d57600080fd5b810190808051604051939291908464010000000082111561058d57600080fd5b838201915060208201858111156105a357600080fd5b82518660208202830111640100000000821117156105c057600080fd5b8083526020830192505050908051906020019060200280838360005b838110156105f75780820151818401526020810190506105dc565b50505050905001604052505050905060008160008151811061061557fe5b602002602001015114610673576040517f08c379a000000000000000000000000000000000000000000000000000000000815260040180806020018281038252604c815260200180610fc3604c913960600191505060405180910390fd5b505050565b600082905060008173ffffffffffffffffffffffffffffffffffffffff16636f307dc36040518163ffffffff1660e01b815260040160206040518083038186803b1580156106c557600080fd5b505afa1580156106d9573d6000803e3d6000fd5b505050506040513d60208110156106ef57600080fd5b8101908080519060200190929190505050905060008273ffffffffffffffffffffffffffffffffffffffff1663c5ebeaec856040518263ffffffff1660e01b815260040180828152602001915050602060405180830381600087803b15801561075757600080fd5b505af115801561076b573d6000803e3d6000fd5b505050506040513d602081101561078157600080fd5b81019080805190602001909291905050509050600081146107ed576040517f08c379a000000000000000000000000000000000000000000000000000000000815260040180806020018281038252604281526020018061100f6042913960600191505060405180910390fd5b5050505050565b60008054906101000a900473ffffffffffffffffffffffffffffffffffffffff1681565b600082905060008173ffffffffffffffffffffffffffffffffffffffff16636f307dc36040518163ffffffff1660e01b815260040160206040518083038186803b15801561086557600080fd5b505afa158015610879573d6000803e3d6000fd5b505050506040513d602081101561088f57600080fd5b810190808051906020019092919050505090508073ffffffffffffffffffffffffffffffffffffffff1663095ea7b385856040518363ffffffff1660e01b8152600401808373ffffffffffffffffffffffffffffffffffffffff16815260200182815260200192505050602060405180830381600087803b15801561091357600080fd5b505af1158015610927573d6000803e3d6000fd5b505050506040513d602081101561093d57600080fd5b81019080805190602001909291905050505060008273ffffffffffffffffffffffffffffffffffffffff16630e752702856040518263ffffffff1660e01b815260040180828152602001915050602060405180830381600087803b1580156109a457600080fd5b505af11580156109b8573d6000803e3d6000fd5b505050506040513d60208110156109ce57600080fd5b8101908080519060200190929190505050905060008114610a3a576040517f08c379a000000000000000000000000000000000000000000000000000000000815260040180806020018281038252604281526020018061100f6042913960600191505060405180910390fd5b5050505050565b600082905060008173ffffffffffffffffffffffffffffffffffffffff16636f307dc36040518163ffffffff1660e01b815260040160206040518083038186803b158015610a8e57600080fd5b505afa158015610aa2573d6000803e3d6000fd5b505050506040513d6020811015610ab857600080fd5b810190808051906020019092919050505090508073ffffffffffffffffffffffffffffffffffffffff1663095ea7b385856040518363ffffffff1660e01b8152600401808373ffffffffffffffffffffffffffffffffffffffff16815260200182815260200192505050602060405180830381600087803b158015610b3c57600080fd5b505af1158015610b50573d6000803e3d6000fd5b505050506040513d6020811015610b6657600080fd5b81019080805190602001909291905050505060008273ffffffffffffffffffffffffffffffffffffffff1663a0712d68856040518263ffffffff1660e01b815260040180828152602001915050602060405180830381600087803b158015610bcd57600080fd5b505af1158015610be1573d6000803e3d6000fd5b505050506040513d6020811015610bf757600080fd5b8101908080519060200190929190505050905060008114610c63576040517f08c379a00000000000000000000000000000000000000000000000000000000081526004018080602001828103825260408152602001806110516040913960400191505060405180910390fd5b5050505050565b60008060008060008054906101000a900473ffffffffffffffffffffffffffffffffffffffff1673ffffffffffffffffffffffffffffffffffffffff16635ec88c79306040518263ffffffff1660e01b8152600401808273ffffffffffffffffffffffffffffffffffffffff16815260200191505060606040518083038186803b158015610cf757600080fd5b505afa158015610d0b573d6000803e3d6000fd5b505050506040513d6060811015610d2157600080fd5b8101908080519060200190929190805190602001909291908051906020019092919050505092509250925060008314610da5576040517f08c379a0000000000000000000000000000000000000000000000000000000008152600401808060200182810382526054815260200180610f6f6054913960600191505060405180910390fd5b60008114610e1b576040517f08c379a00000000000000000000000000000000000000000000000000000000081526004018080602001828103825260128152602001807f6163636f756e7420756e6465727761746572000000000000000000000000000081525060200191505060405180910390fd5b60008211610e91576040517f08c379a00000000000000000000000000000000000000000000000000000000081526004018080602001828103825260208152602001807f6163636f756e7420646f6573206e6f74206861766520636f6c6c61746572616c81525060200191505060405180910390fd5b6000600160009054906101000a900473ffffffffffffffffffffffffffffffffffffffff1673ffffffffffffffffffffffffffffffffffffffff1663fc57d4df876040518263ffffffff1660e01b8152600401808273ffffffffffffffffffffffffffffffffffffffff16815260200191505060206040518083038186803b158015610f1c57600080fd5b505afa158015610f30573d6000803e3d6000fd5b505050506040513d6020811015610f4657600080fd5b81019080805190602001909291905050509050808381610f6257fe5b0494505050505091905056fe636f6d7074726f6c6c6572236765744163636f756e744c69717569646974792829206661696c65642e2073656520436f6d706f756e64204572726f725265706f727465722e736f6c20666f722064657461696c73636f6d7074726f6c6c657223656e7465724d61726b65742829206661696c65642e2073656520436f6d706f756e64204572726f725265706f727465722e736f6c20666f722064657461696c7363546f6b656e23626f72726f772829206661696c65642e2073656520436f6d706f756e64204572726f725265706f727465722e736f6c20666f722064657461696c7363546f6b656e236d696e742829206661696c65642e2073656520436f6d706f756e64204572726f725265706f727465722e736f6c20666f722064657461696c7363546f6b656e2372656465656d2829206661696c65642e2073656520436f6d706f756e64204572726f725265706f727465722e736f6c20666f72206d6f72652064657461696c73a2646970667358221220067a58f5a2f67be3f892c697c3b5b55e6a5f361553625ac62769c1c844f716e664736f6c63430007030033",
  "immutableReferences": {},
  "source": "pragma solidity ^0.7.3;\r\n\r\nimport '@openzeppelin/contracts/token/ERC20/IERC20.sol';\r\nimport './CTokenInterface.sol';\r\nimport './ComptrollerInterface.sol';\r\nimport './PriceOracleInterface.sol';\r\n\r\ncontract MyDeFiProject {\r\n  ComptrollerInterface public comptroller;\r\n  PriceOracleInterface public priceOracle;\r\n\r\n  constructor(\r\n    address _comptroller,\r\n    address _priceOracle\r\n  ) {\r\n    comptroller = ComptrollerInterface(_comptroller);\r\n    priceOracle = PriceOracleInterface(_priceOracle);\r\n  }\r\n\r\n  function supply(address cTokenAddress, uint underlyingAmount ) public {\r\n    CTokenInterface cToken = CTokenInterface(cTokenAddress);\r\n    address underlyingAddress = cToken.underlying();\r\n    IERC20(underlyingAddress).approve(cTokenAddress, underlyingAmount);\r\n    uint result = cToken.mint(underlyingAmount);\r\n    require(\r\n      result == 0,\r\n      'cToken#mint() failed. see Compound ErrorReporter.sol for details'\r\n    );\r\n  }\r\n\r\n  function redeem(address cTokenAddress, uint cTokenAmount) external {\r\n    CTokenInterface cToken = CTokenInterface(cTokenAddress);\r\n    uint result = cToken.redeem(cTokenAmount);\r\n    require(\r\n      result == 0,\r\n      'cToken#redeem() failed. see Compound ErrorReporter.sol for more details'\r\n    );\r\n  }\r\n\r\n  function enterMarket(address cTokenAddress) external {\r\n    address[] memory markets = new address[](1);\r\n    markets[0] = cTokenAddress;\r\n    uint[] memory results = comptroller.enterMarkets(markets);\r\n    require(\r\n      results[0] == 0,\r\n      'comptroller#enterMarket() failed. see Compound ErrorReporter.sol for details'\r\n    );\r\n  }\r\n\r\n  function borrow(address cTokenAddress, uint borrowAmount) external {\r\n    CTokenInterface cToken = CTokenInterface(cTokenAddress);\r\n    address underlyingAddress = cToken.underlying();\r\n    uint result = cToken.borrow(borrowAmount);\r\n    require(\r\n      result == 0,\r\n      'cToken#borrow() failed. see Compound ErrorReporter.sol for details'\r\n    );\r\n  }\r\n\r\n  function repayBorrow(address cTokenAddress, uint underlyingAmount) external {\r\n    CTokenInterface cToken = CTokenInterface(cTokenAddress);\r\n    address underlyingAddress = cToken.underlying();\r\n    IERC20(underlyingAddress).approve(cTokenAddress, underlyingAmount);\r\n    uint result = cToken.repayBorrow(underlyingAmount);\r\n    require(\r\n      result == 0,\r\n      'cToken#borrow() failed. see Compound ErrorReporter.sol for details'\r\n    );\r\n  }\r\n\r\n  function getMaxBorrow(address cTokenAddress) external view returns(uint) {\r\n    (uint result, uint liquidity, uint shortfall) = comptroller\r\n      .getAccountLiquidity(address(this));\r\n    require(\r\n      result == 0,\r\n      'comptroller#getAccountLiquidity() failed. see Compound ErrorReporter.sol for details'\r\n    );\r\n    require(shortfall == 0, 'account underwater');\r\n    require(liquidity > 0, 'account does not have collateral');\r\n    uint underlyingPrice = priceOracle.getUnderlyingPrice(cTokenAddress);\r\n    return liquidity / underlyingPrice;\r\n  }\r\n\r\n}\r\n",
  "sourcePath": "C:/Users/Seva/defi-development/compound-homework/contracts/MyDeFiProject.sol",
  "compiler": {
    "name": "solc",
    "version": "0.7.3+commit.9bfce1f6.Emscripten.clang"
  },
  "schemaVersion": "3.3.3",
  "updatedAt": "2021-02-18T15:26:54.196Z",
  "networkType": "ethereum",
  "devdoc": {
    "kind": "dev",
    "methods": {},
    "version": 1
  },
  "userdoc": {
    "kind": "user",
    "methods": {},
    "version": 1
  }
}